{
	"data": {
		"bytecode": {
			"linkReferences": {},
			"object": "6080604052348015600e575f80fd5b5061120a8061001c5f395ff3fe608060405260043610610033575f3560e01c806350d6ceae14610037578063a590fbdb14610067578063c08e0f96146100a6575b5f80fd5b610051600480360381019061004c9190610962565b6100e2565b60405161005e91906109ed565b60405180910390f35b348015610072575f80fd5b5061008d60048036038101906100889190610a06565b610653565b60405161009d9493929190610b75565b60405180910390f35b3480156100b1575f80fd5b506100cc60048036038101906100c79190610bbf565b610749565b6040516100d991906109ed565b60405180910390f35b5f805f808781526020019081526020015f208054905011610138576040517f08c379a000000000000000000000000000000000000000000000000000000000815260040161012f90610c34565b60405180910390fd5b5f805f8781526020019081526020015f20805480602002602001604051908101604052809291908181526020015f905b828210156102c0578382905f5260205f2090600402016040518060800160405290815f82015f9054906101000a900460ff1660048111156101ac576101ab610a44565b5b60048111156101be576101bd610a44565b5b81526020016001820180546101d290610c7f565b80601f01602080910402602001604051908101604052809291908181526020018280546101fe90610c7f565b80156102495780601f1061022057610100808354040283529160200191610249565b820191905f5260205f20905b81548152906001019060200180831161022c57829003601f168201915b5050505050815260200160028201548152602001600382015f9054906101000a900473ffffffffffffffffffffffffffffffffffffffff1673ffffffffffffffffffffffffffffffffffffffff1673ffffffffffffffffffffffffffffffffffffffff168152505081526020019060010190610168565b5050505090505f600182600184516102d89190610cdc565b815181106102e9576102e8610d0f565b5b60200260200101515f0151600481111561030657610305610a44565b5b6103109190610d3c565b905060048081111561032557610324610a44565b5b811115610367576040517f08c379a000000000000000000000000000000000000000000000000000000000815260040161035e90610db9565b60405180910390fd5b6002600481111561037b5761037a610a44565b5b811480610399575060048081111561039657610395610a44565b5b81145b15610484575f826001836103ad9190610cdc565b815181106103be576103bd610d0f565b5b60200260200101516040015190508034101561040f576040517f08c379a000000000000000000000000000000000000000000000000000000000815260040161040690610e21565b60405180910390fd5b5f8360018461041e9190610cdc565b8151811061042f5761042e610d0f565b5b60200260200101516060015190508073ffffffffffffffffffffffffffffffffffffffff166108fc8390811502906040515f60405180830381858888f19350505050158015610480573d5f803e3d5ffd5b5050505b5f60405180608001604052808360048111156104a3576104a2610a44565b5b60048111156104b5576104b4610a44565b5b815260200188888080601f0160208091040260200160405190810160405280939291908181526020018383808284375f81840152601f19601f8201169050808301925050505050505081526020018681526020013373ffffffffffffffffffffffffffffffffffffffff1681525090505f808981526020019081526020015f2081908060018154018082558091505060019003905f5260205f2090600402015f909190919091505f820151815f015f6101000a81548160ff0219169083600481111561058457610583610a44565b5b0217905550602082015181600101908161059e9190611009565b50604082015181600201556060820151816003015f6101000a81548173ffffffffffffffffffffffffffffffffffffffff021916908373ffffffffffffffffffffffffffffffffffffffff16021790555050507f3e9a0bce1448a8377baf91171594cf9f7664bfb076d87b57e41d1fa1c5d85e3a8883600481111561062657610625610a44565b5b8989338a60405161063c96959493929190611112565b60405180910390a160019350505050949350505050565b5f602052815f5260405f20818154811061066b575f80fd5b905f5260205f2090600402015f9150915050805f015f9054906101000a900460ff169080600101805461069d90610c7f565b80601f01602080910402602001604051908101604052809291908181526020018280546106c990610c7f565b80156107145780601f106106eb57610100808354040283529160200191610714565b820191905f5260205f20905b8154815290600101906020018083116106f757829003601f168201915b505050505090806002015490806003015f9054906101000a900473ffffffffffffffffffffffffffffffffffffffff16905084565b5f805f808481526020019081526020015f20805490501461079f576040517f08c379a0000000000000000000000000000000000000000000000000000000008152600401610796906111b6565b60405180910390fd5b5f808381526020019081526020015f2060405180608001604052805f60048111156107cd576107cc610a44565b5b815260200160405180602001604052805f81525081526020015f81526020013373ffffffffffffffffffffffffffffffffffffffff16815250908060018154018082558091505060019003905f5260205f2090600402015f909190919091505f820151815f015f6101000a81548160ff0219169083600481111561085457610853610a44565b5b0217905550602082015181600101908161086e9190611009565b50604082015181600201556060820151816003015f6101000a81548173ffffffffffffffffffffffffffffffffffffffff021916908373ffffffffffffffffffffffffffffffffffffffff1602179055505050919050565b5f80fd5b5f80fd5b5f819050919050565b6108e0816108ce565b81146108ea575f80fd5b50565b5f813590506108fb816108d7565b92915050565b5f80fd5b5f80fd5b5f80fd5b5f8083601f84011261092257610921610901565b5b8235905067ffffffffffffffff81111561093f5761093e610905565b5b60208301915083600182028301111561095b5761095a610909565b5b9250929050565b5f805f806060858703121561097a576109796108c6565b5b5f610987878288016108ed565b945050602085013567ffffffffffffffff8111156109a8576109a76108ca565b5b6109b48782880161090d565b935093505060406109c7878288016108ed565b91505092959194509250565b5f8115159050919050565b6109e7816109d3565b82525050565b5f602082019050610a005f8301846109de565b92915050565b5f8060408385031215610a1c57610a1b6108c6565b5b5f610a29858286016108ed565b9250506020610a3a858286016108ed565b9150509250929050565b7f4e487b71000000000000000000000000000000000000000000000000000000005f52602160045260245ffd5b60058110610a8257610a81610a44565b5b50565b5f819050610a9282610a71565b919050565b5f610aa182610a85565b9050919050565b610ab181610a97565b82525050565b5f81519050919050565b5f82825260208201905092915050565b8281835e5f83830152505050565b5f601f19601f8301169050919050565b5f610af982610ab7565b610b038185610ac1565b9350610b13818560208601610ad1565b610b1c81610adf565b840191505092915050565b610b30816108ce565b82525050565b5f73ffffffffffffffffffffffffffffffffffffffff82169050919050565b5f610b5f82610b36565b9050919050565b610b6f81610b55565b82525050565b5f608082019050610b885f830187610aa8565b8181036020830152610b9a8186610aef565b9050610ba96040830185610b27565b610bb66060830184610b66565b95945050505050565b5f60208284031215610bd457610bd36108c6565b5b5f610be1848285016108ed565b91505092915050565b7f546869732070726f6475637420646f65736e27742065786973740000000000005f82015250565b5f610c1e601a83610ac1565b9150610c2982610bea565b602082019050919050565b5f6020820190508181035f830152610c4b81610c12565b9050919050565b7f4e487b71000000000000000000000000000000000000000000000000000000005f52602260045260245ffd5b5f6002820490506001821680610c9657607f821691505b602082108103610ca957610ca8610c52565b5b50919050565b7f4e487b71000000000000000000000000000000000000000000000000000000005f52601160045260245ffd5b5f610ce6826108ce565b9150610cf1836108ce565b9250828203905081811115610d0957610d08610caf565b5b92915050565b7f4e487b71000000000000000000000000000000000000000000000000000000005f52603260045260245ffd5b5f610d46826108ce565b9150610d51836108ce565b9250828201905080821115610d6957610d68610caf565b5b92915050565b7f5468652070726f6475637420686173206e6f206d6f72652073746570730000005f82015250565b5f610da3601d83610ac1565b9150610dae82610d6f565b602082019050919050565b5f6020820190508181035f830152610dd081610d97565b9050919050565b7f596f75206e65656420746f2070617920746865207365727669636500000000005f82015250565b5f610e0b601b83610ac1565b9150610e1682610dd7565b602082019050919050565b5f6020820190508181035f830152610e3881610dff565b9050919050565b7f4e487b71000000000000000000000000000000000000000000000000000000005f52604160045260245ffd5b5f819050815f5260205f209050919050565b5f6020601f8301049050919050565b5f82821b905092915050565b5f60088302610ec87fffffffffffffffffffffffffffffffffffffffffffffffffffffffffffffffff82610e8d565b610ed28683610e8d565b95508019841693508086168417925050509392505050565b5f819050919050565b5f610f0d610f08610f03846108ce565b610eea565b6108ce565b9050919050565b5f819050919050565b610f2683610ef3565b610f3a610f3282610f14565b848454610e99565b825550505050565b5f90565b610f4e610f42565b610f59818484610f1d565b505050565b5b81811015610f7c57610f715f82610f46565b600181019050610f5f565b5050565b601f821115610fc157610f9281610e6c565b610f9b84610e7e565b81016020851015610faa578190505b610fbe610fb685610e7e565b830182610f5e565b50505b505050565b5f82821c905092915050565b5f610fe15f1984600802610fc6565b1980831691505092915050565b5f610ff98383610fd2565b9150826002028217905092915050565b61101282610ab7565b67ffffffffffffffff81111561102b5761102a610e3f565b5b6110358254610c7f565b611040828285610f80565b5f60209050601f831160018114611071575f841561105f578287015190505b6110698582610fee565b8655506110d0565b601f19841661107f86610e6c565b5f5b828110156110a657848901518255600182019150602085019450602081019050611081565b868310156110c357848901516110bf601f891682610fd2565b8355505b6001600288020188555050505b505050505050565b828183375f83830152505050565b5f6110f18385610ac1565b93506110fe8385846110d8565b61110783610adf565b840190509392505050565b5f60a0820190506111255f830189610b27565b6111326020830188610aa8565b81810360408301526111458186886110e6565b90506111546060830185610b66565b6111616080830184610b27565b979650505050505050565b7f546869732070726f6475637420616c72656164792065786973747300000000005f82015250565b5f6111a0601b83610ac1565b91506111ab8261116c565b602082019050919050565b5f6020820190508181035f8301526111cd81611194565b905091905056fea264697066735822122014ce62ab4906fc2b9e0615ad9e083cf2969b2064da1e35ff2ffdf7ffb94f65c064736f6c63430008190033",
			"opcodes": "PUSH1 0x80 PUSH1 0x40 MSTORE CALLVALUE DUP1 ISZERO PUSH1 0xE JUMPI PUSH0 DUP1 REVERT JUMPDEST POP PUSH2 0x120A DUP1 PUSH2 0x1C PUSH0 CODECOPY PUSH0 RETURN INVALID PUSH1 0x80 PUSH1 0x40 MSTORE PUSH1 0x4 CALLDATASIZE LT PUSH2 0x33 JUMPI PUSH0 CALLDATALOAD PUSH1 0xE0 SHR DUP1 PUSH4 0x50D6CEAE EQ PUSH2 0x37 JUMPI DUP1 PUSH4 0xA590FBDB EQ PUSH2 0x67 JUMPI DUP1 PUSH4 0xC08E0F96 EQ PUSH2 0xA6 JUMPI JUMPDEST PUSH0 DUP1 REVERT JUMPDEST PUSH2 0x51 PUSH1 0x4 DUP1 CALLDATASIZE SUB DUP2 ADD SWAP1 PUSH2 0x4C SWAP2 SWAP1 PUSH2 0x962 JUMP JUMPDEST PUSH2 0xE2 JUMP JUMPDEST PUSH1 0x40 MLOAD PUSH2 0x5E SWAP2 SWAP1 PUSH2 0x9ED JUMP JUMPDEST PUSH1 0x40 MLOAD DUP1 SWAP2 SUB SWAP1 RETURN JUMPDEST CALLVALUE DUP1 ISZERO PUSH2 0x72 JUMPI PUSH0 DUP1 REVERT JUMPDEST POP PUSH2 0x8D PUSH1 0x4 DUP1 CALLDATASIZE SUB DUP2 ADD SWAP1 PUSH2 0x88 SWAP2 SWAP1 PUSH2 0xA06 JUMP JUMPDEST PUSH2 0x653 JUMP JUMPDEST PUSH1 0x40 MLOAD PUSH2 0x9D SWAP5 SWAP4 SWAP3 SWAP2 SWAP1 PUSH2 0xB75 JUMP JUMPDEST PUSH1 0x40 MLOAD DUP1 SWAP2 SUB SWAP1 RETURN JUMPDEST CALLVALUE DUP1 ISZERO PUSH2 0xB1 JUMPI PUSH0 DUP1 REVERT JUMPDEST POP PUSH2 0xCC PUSH1 0x4 DUP1 CALLDATASIZE SUB DUP2 ADD SWAP1 PUSH2 0xC7 SWAP2 SWAP1 PUSH2 0xBBF JUMP JUMPDEST PUSH2 0x749 JUMP JUMPDEST PUSH1 0x40 MLOAD PUSH2 0xD9 SWAP2 SWAP1 PUSH2 0x9ED JUMP JUMPDEST PUSH1 0x40 MLOAD DUP1 SWAP2 SUB SWAP1 RETURN JUMPDEST PUSH0 DUP1 PUSH0 DUP1 DUP8 DUP2 MSTORE PUSH1 0x20 ADD SWAP1 DUP2 MSTORE PUSH1 0x20 ADD PUSH0 KECCAK256 DUP1 SLOAD SWAP1 POP GT PUSH2 0x138 JUMPI PUSH1 0x40 MLOAD PUSH32 0x8C379A000000000000000000000000000000000000000000000000000000000 DUP2 MSTORE PUSH1 0x4 ADD PUSH2 0x12F SWAP1 PUSH2 0xC34 JUMP JUMPDEST PUSH1 0x40 MLOAD DUP1 SWAP2 SUB SWAP1 REVERT JUMPDEST PUSH0 DUP1 PUSH0 DUP8 DUP2 MSTORE PUSH1 0x20 ADD SWAP1 DUP2 MSTORE PUSH1 0x20 ADD PUSH0 KECCAK256 DUP1 SLOAD DUP1 PUSH1 0x20 MUL PUSH1 0x20 ADD PUSH1 0x40 MLOAD SWAP1 DUP2 ADD PUSH1 0x40 MSTORE DUP1 SWAP3 SWAP2 SWAP1 DUP2 DUP2 MSTORE PUSH1 0x20 ADD PUSH0 SWAP1 JUMPDEST DUP3 DUP3 LT ISZERO PUSH2 0x2C0 JUMPI DUP4 DUP3 SWAP1 PUSH0 MSTORE PUSH1 0x20 PUSH0 KECCAK256 SWAP1 PUSH1 0x4 MUL ADD PUSH1 0x40 MLOAD DUP1 PUSH1 0x80 ADD PUSH1 0x40 MSTORE SWAP1 DUP2 PUSH0 DUP3 ADD PUSH0 SWAP1 SLOAD SWAP1 PUSH2 0x100 EXP SWAP1 DIV PUSH1 0xFF AND PUSH1 0x4 DUP2 GT ISZERO PUSH2 0x1AC JUMPI PUSH2 0x1AB PUSH2 0xA44 JUMP JUMPDEST JUMPDEST PUSH1 0x4 DUP2 GT ISZERO PUSH2 0x1BE JUMPI PUSH2 0x1BD PUSH2 0xA44 JUMP JUMPDEST JUMPDEST DUP2 MSTORE PUSH1 0x20 ADD PUSH1 0x1 DUP3 ADD DUP1 SLOAD PUSH2 0x1D2 SWAP1 PUSH2 0xC7F JUMP JUMPDEST DUP1 PUSH1 0x1F ADD PUSH1 0x20 DUP1 SWAP2 DIV MUL PUSH1 0x20 ADD PUSH1 0x40 MLOAD SWAP1 DUP2 ADD PUSH1 0x40 MSTORE DUP1 SWAP3 SWAP2 SWAP1 DUP2 DUP2 MSTORE PUSH1 0x20 ADD DUP3 DUP1 SLOAD PUSH2 0x1FE SWAP1 PUSH2 0xC7F JUMP JUMPDEST DUP1 ISZERO PUSH2 0x249 JUMPI DUP1 PUSH1 0x1F LT PUSH2 0x220 JUMPI PUSH2 0x100 DUP1 DUP4 SLOAD DIV MUL DUP4 MSTORE SWAP2 PUSH1 0x20 ADD SWAP2 PUSH2 0x249 JUMP JUMPDEST DUP3 ADD SWAP2 SWAP1 PUSH0 MSTORE PUSH1 0x20 PUSH0 KECCAK256 SWAP1 JUMPDEST DUP2 SLOAD DUP2 MSTORE SWAP1 PUSH1 0x1 ADD SWAP1 PUSH1 0x20 ADD DUP1 DUP4 GT PUSH2 0x22C JUMPI DUP3 SWAP1 SUB PUSH1 0x1F AND DUP3 ADD SWAP2 JUMPDEST POP POP POP POP POP DUP2 MSTORE PUSH1 0x20 ADD PUSH1 0x2 DUP3 ADD SLOAD DUP2 MSTORE PUSH1 0x20 ADD PUSH1 0x3 DUP3 ADD PUSH0 SWAP1 SLOAD SWAP1 PUSH2 0x100 EXP SWAP1 DIV PUSH20 0xFFFFFFFFFFFFFFFFFFFFFFFFFFFFFFFFFFFFFFFF AND PUSH20 0xFFFFFFFFFFFFFFFFFFFFFFFFFFFFFFFFFFFFFFFF AND PUSH20 0xFFFFFFFFFFFFFFFFFFFFFFFFFFFFFFFFFFFFFFFF AND DUP2 MSTORE POP POP DUP2 MSTORE PUSH1 0x20 ADD SWAP1 PUSH1 0x1 ADD SWAP1 PUSH2 0x168 JUMP JUMPDEST POP POP POP POP SWAP1 POP PUSH0 PUSH1 0x1 DUP3 PUSH1 0x1 DUP5 MLOAD PUSH2 0x2D8 SWAP2 SWAP1 PUSH2 0xCDC JUMP JUMPDEST DUP2 MLOAD DUP2 LT PUSH2 0x2E9 JUMPI PUSH2 0x2E8 PUSH2 0xD0F JUMP JUMPDEST JUMPDEST PUSH1 0x20 MUL PUSH1 0x20 ADD ADD MLOAD PUSH0 ADD MLOAD PUSH1 0x4 DUP2 GT ISZERO PUSH2 0x306 JUMPI PUSH2 0x305 PUSH2 0xA44 JUMP JUMPDEST JUMPDEST PUSH2 0x310 SWAP2 SWAP1 PUSH2 0xD3C JUMP JUMPDEST SWAP1 POP PUSH1 0x4 DUP1 DUP2 GT ISZERO PUSH2 0x325 JUMPI PUSH2 0x324 PUSH2 0xA44 JUMP JUMPDEST JUMPDEST DUP2 GT ISZERO PUSH2 0x367 JUMPI PUSH1 0x40 MLOAD PUSH32 0x8C379A000000000000000000000000000000000000000000000000000000000 DUP2 MSTORE PUSH1 0x4 ADD PUSH2 0x35E SWAP1 PUSH2 0xDB9 JUMP JUMPDEST PUSH1 0x40 MLOAD DUP1 SWAP2 SUB SWAP1 REVERT JUMPDEST PUSH1 0x2 PUSH1 0x4 DUP2 GT ISZERO PUSH2 0x37B JUMPI PUSH2 0x37A PUSH2 0xA44 JUMP JUMPDEST JUMPDEST DUP2 EQ DUP1 PUSH2 0x399 JUMPI POP PUSH1 0x4 DUP1 DUP2 GT ISZERO PUSH2 0x396 JUMPI PUSH2 0x395 PUSH2 0xA44 JUMP JUMPDEST JUMPDEST DUP2 EQ JUMPDEST ISZERO PUSH2 0x484 JUMPI PUSH0 DUP3 PUSH1 0x1 DUP4 PUSH2 0x3AD SWAP2 SWAP1 PUSH2 0xCDC JUMP JUMPDEST DUP2 MLOAD DUP2 LT PUSH2 0x3BE JUMPI PUSH2 0x3BD PUSH2 0xD0F JUMP JUMPDEST JUMPDEST PUSH1 0x20 MUL PUSH1 0x20 ADD ADD MLOAD PUSH1 0x40 ADD MLOAD SWAP1 POP DUP1 CALLVALUE LT ISZERO PUSH2 0x40F JUMPI PUSH1 0x40 MLOAD PUSH32 0x8C379A000000000000000000000000000000000000000000000000000000000 DUP2 MSTORE PUSH1 0x4 ADD PUSH2 0x406 SWAP1 PUSH2 0xE21 JUMP JUMPDEST PUSH1 0x40 MLOAD DUP1 SWAP2 SUB SWAP1 REVERT JUMPDEST PUSH0 DUP4 PUSH1 0x1 DUP5 PUSH2 0x41E SWAP2 SWAP1 PUSH2 0xCDC JUMP JUMPDEST DUP2 MLOAD DUP2 LT PUSH2 0x42F JUMPI PUSH2 0x42E PUSH2 0xD0F JUMP JUMPDEST JUMPDEST PUSH1 0x20 MUL PUSH1 0x20 ADD ADD MLOAD PUSH1 0x60 ADD MLOAD SWAP1 POP DUP1 PUSH20 0xFFFFFFFFFFFFFFFFFFFFFFFFFFFFFFFFFFFFFFFF AND PUSH2 0x8FC DUP4 SWAP1 DUP2 ISZERO MUL SWAP1 PUSH1 0x40 MLOAD PUSH0 PUSH1 0x40 MLOAD DUP1 DUP4 SUB DUP2 DUP6 DUP9 DUP9 CALL SWAP4 POP POP POP POP ISZERO DUP1 ISZERO PUSH2 0x480 JUMPI RETURNDATASIZE PUSH0 DUP1 RETURNDATACOPY RETURNDATASIZE PUSH0 REVERT JUMPDEST POP POP POP JUMPDEST PUSH0 PUSH1 0x40 MLOAD DUP1 PUSH1 0x80 ADD PUSH1 0x40 MSTORE DUP1 DUP4 PUSH1 0x4 DUP2 GT ISZERO PUSH2 0x4A3 JUMPI PUSH2 0x4A2 PUSH2 0xA44 JUMP JUMPDEST JUMPDEST PUSH1 0x4 DUP2 GT ISZERO PUSH2 0x4B5 JUMPI PUSH2 0x4B4 PUSH2 0xA44 JUMP JUMPDEST JUMPDEST DUP2 MSTORE PUSH1 0x20 ADD DUP9 DUP9 DUP1 DUP1 PUSH1 0x1F ADD PUSH1 0x20 DUP1 SWAP2 DIV MUL PUSH1 0x20 ADD PUSH1 0x40 MLOAD SWAP1 DUP2 ADD PUSH1 0x40 MSTORE DUP1 SWAP4 SWAP3 SWAP2 SWAP1 DUP2 DUP2 MSTORE PUSH1 0x20 ADD DUP4 DUP4 DUP1 DUP3 DUP5 CALLDATACOPY PUSH0 DUP2 DUP5 ADD MSTORE PUSH1 0x1F NOT PUSH1 0x1F DUP3 ADD AND SWAP1 POP DUP1 DUP4 ADD SWAP3 POP POP POP POP POP POP POP DUP2 MSTORE PUSH1 0x20 ADD DUP7 DUP2 MSTORE PUSH1 0x20 ADD CALLER PUSH20 0xFFFFFFFFFFFFFFFFFFFFFFFFFFFFFFFFFFFFFFFF AND DUP2 MSTORE POP SWAP1 POP PUSH0 DUP1 DUP10 DUP2 MSTORE PUSH1 0x20 ADD SWAP1 DUP2 MSTORE PUSH1 0x20 ADD PUSH0 KECCAK256 DUP2 SWAP1 DUP1 PUSH1 0x1 DUP2 SLOAD ADD DUP1 DUP3 SSTORE DUP1 SWAP2 POP POP PUSH1 0x1 SWAP1 SUB SWAP1 PUSH0 MSTORE PUSH1 0x20 PUSH0 KECCAK256 SWAP1 PUSH1 0x4 MUL ADD PUSH0 SWAP1 SWAP2 SWAP1 SWAP2 SWAP1 SWAP2 POP PUSH0 DUP3 ADD MLOAD DUP2 PUSH0 ADD PUSH0 PUSH2 0x100 EXP DUP2 SLOAD DUP2 PUSH1 0xFF MUL NOT AND SWAP1 DUP4 PUSH1 0x4 DUP2 GT ISZERO PUSH2 0x584 JUMPI PUSH2 0x583 PUSH2 0xA44 JUMP JUMPDEST JUMPDEST MUL OR SWAP1 SSTORE POP PUSH1 0x20 DUP3 ADD MLOAD DUP2 PUSH1 0x1 ADD SWAP1 DUP2 PUSH2 0x59E SWAP2 SWAP1 PUSH2 0x1009 JUMP JUMPDEST POP PUSH1 0x40 DUP3 ADD MLOAD DUP2 PUSH1 0x2 ADD SSTORE PUSH1 0x60 DUP3 ADD MLOAD DUP2 PUSH1 0x3 ADD PUSH0 PUSH2 0x100 EXP DUP2 SLOAD DUP2 PUSH20 0xFFFFFFFFFFFFFFFFFFFFFFFFFFFFFFFFFFFFFFFF MUL NOT AND SWAP1 DUP4 PUSH20 0xFFFFFFFFFFFFFFFFFFFFFFFFFFFFFFFFFFFFFFFF AND MUL OR SWAP1 SSTORE POP POP POP PUSH32 0x3E9A0BCE1448A8377BAF91171594CF9F7664BFB076D87B57E41D1FA1C5D85E3A DUP9 DUP4 PUSH1 0x4 DUP2 GT ISZERO PUSH2 0x626 JUMPI PUSH2 0x625 PUSH2 0xA44 JUMP JUMPDEST JUMPDEST DUP10 DUP10 CALLER DUP11 PUSH1 0x40 MLOAD PUSH2 0x63C SWAP7 SWAP6 SWAP5 SWAP4 SWAP3 SWAP2 SWAP1 PUSH2 0x1112 JUMP JUMPDEST PUSH1 0x40 MLOAD DUP1 SWAP2 SUB SWAP1 LOG1 PUSH1 0x1 SWAP4 POP POP POP POP SWAP5 SWAP4 POP POP POP POP JUMP JUMPDEST PUSH0 PUSH1 0x20 MSTORE DUP2 PUSH0 MSTORE PUSH1 0x40 PUSH0 KECCAK256 DUP2 DUP2 SLOAD DUP2 LT PUSH2 0x66B JUMPI PUSH0 DUP1 REVERT JUMPDEST SWAP1 PUSH0 MSTORE PUSH1 0x20 PUSH0 KECCAK256 SWAP1 PUSH1 0x4 MUL ADD PUSH0 SWAP2 POP SWAP2 POP POP DUP1 PUSH0 ADD PUSH0 SWAP1 SLOAD SWAP1 PUSH2 0x100 EXP SWAP1 DIV PUSH1 0xFF AND SWAP1 DUP1 PUSH1 0x1 ADD DUP1 SLOAD PUSH2 0x69D SWAP1 PUSH2 0xC7F JUMP JUMPDEST DUP1 PUSH1 0x1F ADD PUSH1 0x20 DUP1 SWAP2 DIV MUL PUSH1 0x20 ADD PUSH1 0x40 MLOAD SWAP1 DUP2 ADD PUSH1 0x40 MSTORE DUP1 SWAP3 SWAP2 SWAP1 DUP2 DUP2 MSTORE PUSH1 0x20 ADD DUP3 DUP1 SLOAD PUSH2 0x6C9 SWAP1 PUSH2 0xC7F JUMP JUMPDEST DUP1 ISZERO PUSH2 0x714 JUMPI DUP1 PUSH1 0x1F LT PUSH2 0x6EB JUMPI PUSH2 0x100 DUP1 DUP4 SLOAD DIV MUL DUP4 MSTORE SWAP2 PUSH1 0x20 ADD SWAP2 PUSH2 0x714 JUMP JUMPDEST DUP3 ADD SWAP2 SWAP1 PUSH0 MSTORE PUSH1 0x20 PUSH0 KECCAK256 SWAP1 JUMPDEST DUP2 SLOAD DUP2 MSTORE SWAP1 PUSH1 0x1 ADD SWAP1 PUSH1 0x20 ADD DUP1 DUP4 GT PUSH2 0x6F7 JUMPI DUP3 SWAP1 SUB PUSH1 0x1F AND DUP3 ADD SWAP2 JUMPDEST POP POP POP POP POP SWAP1 DUP1 PUSH1 0x2 ADD SLOAD SWAP1 DUP1 PUSH1 0x3 ADD PUSH0 SWAP1 SLOAD SWAP1 PUSH2 0x100 EXP SWAP1 DIV PUSH20 0xFFFFFFFFFFFFFFFFFFFFFFFFFFFFFFFFFFFFFFFF AND SWAP1 POP DUP5 JUMP JUMPDEST PUSH0 DUP1 PUSH0 DUP1 DUP5 DUP2 MSTORE PUSH1 0x20 ADD SWAP1 DUP2 MSTORE PUSH1 0x20 ADD PUSH0 KECCAK256 DUP1 SLOAD SWAP1 POP EQ PUSH2 0x79F JUMPI PUSH1 0x40 MLOAD PUSH32 0x8C379A000000000000000000000000000000000000000000000000000000000 DUP2 MSTORE PUSH1 0x4 ADD PUSH2 0x796 SWAP1 PUSH2 0x11B6 JUMP JUMPDEST PUSH1 0x40 MLOAD DUP1 SWAP2 SUB SWAP1 REVERT JUMPDEST PUSH0 DUP1 DUP4 DUP2 MSTORE PUSH1 0x20 ADD SWAP1 DUP2 MSTORE PUSH1 0x20 ADD PUSH0 KECCAK256 PUSH1 0x40 MLOAD DUP1 PUSH1 0x80 ADD PUSH1 0x40 MSTORE DUP1 PUSH0 PUSH1 0x4 DUP2 GT ISZERO PUSH2 0x7CD JUMPI PUSH2 0x7CC PUSH2 0xA44 JUMP JUMPDEST JUMPDEST DUP2 MSTORE PUSH1 0x20 ADD PUSH1 0x40 MLOAD DUP1 PUSH1 0x20 ADD PUSH1 0x40 MSTORE DUP1 PUSH0 DUP2 MSTORE POP DUP2 MSTORE PUSH1 0x20 ADD PUSH0 DUP2 MSTORE PUSH1 0x20 ADD CALLER PUSH20 0xFFFFFFFFFFFFFFFFFFFFFFFFFFFFFFFFFFFFFFFF AND DUP2 MSTORE POP SWAP1 DUP1 PUSH1 0x1 DUP2 SLOAD ADD DUP1 DUP3 SSTORE DUP1 SWAP2 POP POP PUSH1 0x1 SWAP1 SUB SWAP1 PUSH0 MSTORE PUSH1 0x20 PUSH0 KECCAK256 SWAP1 PUSH1 0x4 MUL ADD PUSH0 SWAP1 SWAP2 SWAP1 SWAP2 SWAP1 SWAP2 POP PUSH0 DUP3 ADD MLOAD DUP2 PUSH0 ADD PUSH0 PUSH2 0x100 EXP DUP2 SLOAD DUP2 PUSH1 0xFF MUL NOT AND SWAP1 DUP4 PUSH1 0x4 DUP2 GT ISZERO PUSH2 0x854 JUMPI PUSH2 0x853 PUSH2 0xA44 JUMP JUMPDEST JUMPDEST MUL OR SWAP1 SSTORE POP PUSH1 0x20 DUP3 ADD MLOAD DUP2 PUSH1 0x1 ADD SWAP1 DUP2 PUSH2 0x86E SWAP2 SWAP1 PUSH2 0x1009 JUMP JUMPDEST POP PUSH1 0x40 DUP3 ADD MLOAD DUP2 PUSH1 0x2 ADD SSTORE PUSH1 0x60 DUP3 ADD MLOAD DUP2 PUSH1 0x3 ADD PUSH0 PUSH2 0x100 EXP DUP2 SLOAD DUP2 PUSH20 0xFFFFFFFFFFFFFFFFFFFFFFFFFFFFFFFFFFFFFFFF MUL NOT AND SWAP1 DUP4 PUSH20 0xFFFFFFFFFFFFFFFFFFFFFFFFFFFFFFFFFFFFFFFF AND MUL OR SWAP1 SSTORE POP POP POP SWAP2 SWAP1 POP JUMP JUMPDEST PUSH0 DUP1 REVERT JUMPDEST PUSH0 DUP1 REVERT JUMPDEST PUSH0 DUP2 SWAP1 POP SWAP2 SWAP1 POP JUMP JUMPDEST PUSH2 0x8E0 DUP2 PUSH2 0x8CE JUMP JUMPDEST DUP2 EQ PUSH2 0x8EA JUMPI PUSH0 DUP1 REVERT JUMPDEST POP JUMP JUMPDEST PUSH0 DUP2 CALLDATALOAD SWAP1 POP PUSH2 0x8FB DUP2 PUSH2 0x8D7 JUMP JUMPDEST SWAP3 SWAP2 POP POP JUMP JUMPDEST PUSH0 DUP1 REVERT JUMPDEST PUSH0 DUP1 REVERT JUMPDEST PUSH0 DUP1 REVERT JUMPDEST PUSH0 DUP1 DUP4 PUSH1 0x1F DUP5 ADD SLT PUSH2 0x922 JUMPI PUSH2 0x921 PUSH2 0x901 JUMP JUMPDEST JUMPDEST DUP3 CALLDATALOAD SWAP1 POP PUSH8 0xFFFFFFFFFFFFFFFF DUP2 GT ISZERO PUSH2 0x93F JUMPI PUSH2 0x93E PUSH2 0x905 JUMP JUMPDEST JUMPDEST PUSH1 0x20 DUP4 ADD SWAP2 POP DUP4 PUSH1 0x1 DUP3 MUL DUP4 ADD GT ISZERO PUSH2 0x95B JUMPI PUSH2 0x95A PUSH2 0x909 JUMP JUMPDEST JUMPDEST SWAP3 POP SWAP3 SWAP1 POP JUMP JUMPDEST PUSH0 DUP1 PUSH0 DUP1 PUSH1 0x60 DUP6 DUP8 SUB SLT ISZERO PUSH2 0x97A JUMPI PUSH2 0x979 PUSH2 0x8C6 JUMP JUMPDEST JUMPDEST PUSH0 PUSH2 0x987 DUP8 DUP3 DUP9 ADD PUSH2 0x8ED JUMP JUMPDEST SWAP5 POP POP PUSH1 0x20 DUP6 ADD CALLDATALOAD PUSH8 0xFFFFFFFFFFFFFFFF DUP2 GT ISZERO PUSH2 0x9A8 JUMPI PUSH2 0x9A7 PUSH2 0x8CA JUMP JUMPDEST JUMPDEST PUSH2 0x9B4 DUP8 DUP3 DUP9 ADD PUSH2 0x90D JUMP JUMPDEST SWAP4 POP SWAP4 POP POP PUSH1 0x40 PUSH2 0x9C7 DUP8 DUP3 DUP9 ADD PUSH2 0x8ED JUMP JUMPDEST SWAP2 POP POP SWAP3 SWAP6 SWAP2 SWAP5 POP SWAP3 POP JUMP JUMPDEST PUSH0 DUP2 ISZERO ISZERO SWAP1 POP SWAP2 SWAP1 POP JUMP JUMPDEST PUSH2 0x9E7 DUP2 PUSH2 0x9D3 JUMP JUMPDEST DUP3 MSTORE POP POP JUMP JUMPDEST PUSH0 PUSH1 0x20 DUP3 ADD SWAP1 POP PUSH2 0xA00 PUSH0 DUP4 ADD DUP5 PUSH2 0x9DE JUMP JUMPDEST SWAP3 SWAP2 POP POP JUMP JUMPDEST PUSH0 DUP1 PUSH1 0x40 DUP4 DUP6 SUB SLT ISZERO PUSH2 0xA1C JUMPI PUSH2 0xA1B PUSH2 0x8C6 JUMP JUMPDEST JUMPDEST PUSH0 PUSH2 0xA29 DUP6 DUP3 DUP7 ADD PUSH2 0x8ED JUMP JUMPDEST SWAP3 POP POP PUSH1 0x20 PUSH2 0xA3A DUP6 DUP3 DUP7 ADD PUSH2 0x8ED JUMP JUMPDEST SWAP2 POP POP SWAP3 POP SWAP3 SWAP1 POP JUMP JUMPDEST PUSH32 0x4E487B7100000000000000000000000000000000000000000000000000000000 PUSH0 MSTORE PUSH1 0x21 PUSH1 0x4 MSTORE PUSH1 0x24 PUSH0 REVERT JUMPDEST PUSH1 0x5 DUP2 LT PUSH2 0xA82 JUMPI PUSH2 0xA81 PUSH2 0xA44 JUMP JUMPDEST JUMPDEST POP JUMP JUMPDEST PUSH0 DUP2 SWAP1 POP PUSH2 0xA92 DUP3 PUSH2 0xA71 JUMP JUMPDEST SWAP2 SWAP1 POP JUMP JUMPDEST PUSH0 PUSH2 0xAA1 DUP3 PUSH2 0xA85 JUMP JUMPDEST SWAP1 POP SWAP2 SWAP1 POP JUMP JUMPDEST PUSH2 0xAB1 DUP2 PUSH2 0xA97 JUMP JUMPDEST DUP3 MSTORE POP POP JUMP JUMPDEST PUSH0 DUP2 MLOAD SWAP1 POP SWAP2 SWAP1 POP JUMP JUMPDEST PUSH0 DUP3 DUP3 MSTORE PUSH1 0x20 DUP3 ADD SWAP1 POP SWAP3 SWAP2 POP POP JUMP JUMPDEST DUP3 DUP2 DUP4 MCOPY PUSH0 DUP4 DUP4 ADD MSTORE POP POP POP JUMP JUMPDEST PUSH0 PUSH1 0x1F NOT PUSH1 0x1F DUP4 ADD AND SWAP1 POP SWAP2 SWAP1 POP JUMP JUMPDEST PUSH0 PUSH2 0xAF9 DUP3 PUSH2 0xAB7 JUMP JUMPDEST PUSH2 0xB03 DUP2 DUP6 PUSH2 0xAC1 JUMP JUMPDEST SWAP4 POP PUSH2 0xB13 DUP2 DUP6 PUSH1 0x20 DUP7 ADD PUSH2 0xAD1 JUMP JUMPDEST PUSH2 0xB1C DUP2 PUSH2 0xADF JUMP JUMPDEST DUP5 ADD SWAP2 POP POP SWAP3 SWAP2 POP POP JUMP JUMPDEST PUSH2 0xB30 DUP2 PUSH2 0x8CE JUMP JUMPDEST DUP3 MSTORE POP POP JUMP JUMPDEST PUSH0 PUSH20 0xFFFFFFFFFFFFFFFFFFFFFFFFFFFFFFFFFFFFFFFF DUP3 AND SWAP1 POP SWAP2 SWAP1 POP JUMP JUMPDEST PUSH0 PUSH2 0xB5F DUP3 PUSH2 0xB36 JUMP JUMPDEST SWAP1 POP SWAP2 SWAP1 POP JUMP JUMPDEST PUSH2 0xB6F DUP2 PUSH2 0xB55 JUMP JUMPDEST DUP3 MSTORE POP POP JUMP JUMPDEST PUSH0 PUSH1 0x80 DUP3 ADD SWAP1 POP PUSH2 0xB88 PUSH0 DUP4 ADD DUP8 PUSH2 0xAA8 JUMP JUMPDEST DUP2 DUP2 SUB PUSH1 0x20 DUP4 ADD MSTORE PUSH2 0xB9A DUP2 DUP7 PUSH2 0xAEF JUMP JUMPDEST SWAP1 POP PUSH2 0xBA9 PUSH1 0x40 DUP4 ADD DUP6 PUSH2 0xB27 JUMP JUMPDEST PUSH2 0xBB6 PUSH1 0x60 DUP4 ADD DUP5 PUSH2 0xB66 JUMP JUMPDEST SWAP6 SWAP5 POP POP POP POP POP JUMP JUMPDEST PUSH0 PUSH1 0x20 DUP3 DUP5 SUB SLT ISZERO PUSH2 0xBD4 JUMPI PUSH2 0xBD3 PUSH2 0x8C6 JUMP JUMPDEST JUMPDEST PUSH0 PUSH2 0xBE1 DUP5 DUP3 DUP6 ADD PUSH2 0x8ED JUMP JUMPDEST SWAP2 POP POP SWAP3 SWAP2 POP POP JUMP JUMPDEST PUSH32 0x546869732070726F6475637420646F65736E2774206578697374000000000000 PUSH0 DUP3 ADD MSTORE POP JUMP JUMPDEST PUSH0 PUSH2 0xC1E PUSH1 0x1A DUP4 PUSH2 0xAC1 JUMP JUMPDEST SWAP2 POP PUSH2 0xC29 DUP3 PUSH2 0xBEA JUMP JUMPDEST PUSH1 0x20 DUP3 ADD SWAP1 POP SWAP2 SWAP1 POP JUMP JUMPDEST PUSH0 PUSH1 0x20 DUP3 ADD SWAP1 POP DUP2 DUP2 SUB PUSH0 DUP4 ADD MSTORE PUSH2 0xC4B DUP2 PUSH2 0xC12 JUMP JUMPDEST SWAP1 POP SWAP2 SWAP1 POP JUMP JUMPDEST PUSH32 0x4E487B7100000000000000000000000000000000000000000000000000000000 PUSH0 MSTORE PUSH1 0x22 PUSH1 0x4 MSTORE PUSH1 0x24 PUSH0 REVERT JUMPDEST PUSH0 PUSH1 0x2 DUP3 DIV SWAP1 POP PUSH1 0x1 DUP3 AND DUP1 PUSH2 0xC96 JUMPI PUSH1 0x7F DUP3 AND SWAP2 POP JUMPDEST PUSH1 0x20 DUP3 LT DUP2 SUB PUSH2 0xCA9 JUMPI PUSH2 0xCA8 PUSH2 0xC52 JUMP JUMPDEST JUMPDEST POP SWAP2 SWAP1 POP JUMP JUMPDEST PUSH32 0x4E487B7100000000000000000000000000000000000000000000000000000000 PUSH0 MSTORE PUSH1 0x11 PUSH1 0x4 MSTORE PUSH1 0x24 PUSH0 REVERT JUMPDEST PUSH0 PUSH2 0xCE6 DUP3 PUSH2 0x8CE JUMP JUMPDEST SWAP2 POP PUSH2 0xCF1 DUP4 PUSH2 0x8CE JUMP JUMPDEST SWAP3 POP DUP3 DUP3 SUB SWAP1 POP DUP2 DUP2 GT ISZERO PUSH2 0xD09 JUMPI PUSH2 0xD08 PUSH2 0xCAF JUMP JUMPDEST JUMPDEST SWAP3 SWAP2 POP POP JUMP JUMPDEST PUSH32 0x4E487B7100000000000000000000000000000000000000000000000000000000 PUSH0 MSTORE PUSH1 0x32 PUSH1 0x4 MSTORE PUSH1 0x24 PUSH0 REVERT JUMPDEST PUSH0 PUSH2 0xD46 DUP3 PUSH2 0x8CE JUMP JUMPDEST SWAP2 POP PUSH2 0xD51 DUP4 PUSH2 0x8CE JUMP JUMPDEST SWAP3 POP DUP3 DUP3 ADD SWAP1 POP DUP1 DUP3 GT ISZERO PUSH2 0xD69 JUMPI PUSH2 0xD68 PUSH2 0xCAF JUMP JUMPDEST JUMPDEST SWAP3 SWAP2 POP POP JUMP JUMPDEST PUSH32 0x5468652070726F6475637420686173206E6F206D6F7265207374657073000000 PUSH0 DUP3 ADD MSTORE POP JUMP JUMPDEST PUSH0 PUSH2 0xDA3 PUSH1 0x1D DUP4 PUSH2 0xAC1 JUMP JUMPDEST SWAP2 POP PUSH2 0xDAE DUP3 PUSH2 0xD6F JUMP JUMPDEST PUSH1 0x20 DUP3 ADD SWAP1 POP SWAP2 SWAP1 POP JUMP JUMPDEST PUSH0 PUSH1 0x20 DUP3 ADD SWAP1 POP DUP2 DUP2 SUB PUSH0 DUP4 ADD MSTORE PUSH2 0xDD0 DUP2 PUSH2 0xD97 JUMP JUMPDEST SWAP1 POP SWAP2 SWAP1 POP JUMP JUMPDEST PUSH32 0x596F75206E65656420746F207061792074686520736572766963650000000000 PUSH0 DUP3 ADD MSTORE POP JUMP JUMPDEST PUSH0 PUSH2 0xE0B PUSH1 0x1B DUP4 PUSH2 0xAC1 JUMP JUMPDEST SWAP2 POP PUSH2 0xE16 DUP3 PUSH2 0xDD7 JUMP JUMPDEST PUSH1 0x20 DUP3 ADD SWAP1 POP SWAP2 SWAP1 POP JUMP JUMPDEST PUSH0 PUSH1 0x20 DUP3 ADD SWAP1 POP DUP2 DUP2 SUB PUSH0 DUP4 ADD MSTORE PUSH2 0xE38 DUP2 PUSH2 0xDFF JUMP JUMPDEST SWAP1 POP SWAP2 SWAP1 POP JUMP JUMPDEST PUSH32 0x4E487B7100000000000000000000000000000000000000000000000000000000 PUSH0 MSTORE PUSH1 0x41 PUSH1 0x4 MSTORE PUSH1 0x24 PUSH0 REVERT JUMPDEST PUSH0 DUP2 SWAP1 POP DUP2 PUSH0 MSTORE PUSH1 0x20 PUSH0 KECCAK256 SWAP1 POP SWAP2 SWAP1 POP JUMP JUMPDEST PUSH0 PUSH1 0x20 PUSH1 0x1F DUP4 ADD DIV SWAP1 POP SWAP2 SWAP1 POP JUMP JUMPDEST PUSH0 DUP3 DUP3 SHL SWAP1 POP SWAP3 SWAP2 POP POP JUMP JUMPDEST PUSH0 PUSH1 0x8 DUP4 MUL PUSH2 0xEC8 PUSH32 0xFFFFFFFFFFFFFFFFFFFFFFFFFFFFFFFFFFFFFFFFFFFFFFFFFFFFFFFFFFFFFFFF DUP3 PUSH2 0xE8D JUMP JUMPDEST PUSH2 0xED2 DUP7 DUP4 PUSH2 0xE8D JUMP JUMPDEST SWAP6 POP DUP1 NOT DUP5 AND SWAP4 POP DUP1 DUP7 AND DUP5 OR SWAP3 POP POP POP SWAP4 SWAP3 POP POP POP JUMP JUMPDEST PUSH0 DUP2 SWAP1 POP SWAP2 SWAP1 POP JUMP JUMPDEST PUSH0 PUSH2 0xF0D PUSH2 0xF08 PUSH2 0xF03 DUP5 PUSH2 0x8CE JUMP JUMPDEST PUSH2 0xEEA JUMP JUMPDEST PUSH2 0x8CE JUMP JUMPDEST SWAP1 POP SWAP2 SWAP1 POP JUMP JUMPDEST PUSH0 DUP2 SWAP1 POP SWAP2 SWAP1 POP JUMP JUMPDEST PUSH2 0xF26 DUP4 PUSH2 0xEF3 JUMP JUMPDEST PUSH2 0xF3A PUSH2 0xF32 DUP3 PUSH2 0xF14 JUMP JUMPDEST DUP5 DUP5 SLOAD PUSH2 0xE99 JUMP JUMPDEST DUP3 SSTORE POP POP POP POP JUMP JUMPDEST PUSH0 SWAP1 JUMP JUMPDEST PUSH2 0xF4E PUSH2 0xF42 JUMP JUMPDEST PUSH2 0xF59 DUP2 DUP5 DUP5 PUSH2 0xF1D JUMP JUMPDEST POP POP POP JUMP JUMPDEST JUMPDEST DUP2 DUP2 LT ISZERO PUSH2 0xF7C JUMPI PUSH2 0xF71 PUSH0 DUP3 PUSH2 0xF46 JUMP JUMPDEST PUSH1 0x1 DUP2 ADD SWAP1 POP PUSH2 0xF5F JUMP JUMPDEST POP POP JUMP JUMPDEST PUSH1 0x1F DUP3 GT ISZERO PUSH2 0xFC1 JUMPI PUSH2 0xF92 DUP2 PUSH2 0xE6C JUMP JUMPDEST PUSH2 0xF9B DUP5 PUSH2 0xE7E JUMP JUMPDEST DUP2 ADD PUSH1 0x20 DUP6 LT ISZERO PUSH2 0xFAA JUMPI DUP2 SWAP1 POP JUMPDEST PUSH2 0xFBE PUSH2 0xFB6 DUP6 PUSH2 0xE7E JUMP JUMPDEST DUP4 ADD DUP3 PUSH2 0xF5E JUMP JUMPDEST POP POP JUMPDEST POP POP POP JUMP JUMPDEST PUSH0 DUP3 DUP3 SHR SWAP1 POP SWAP3 SWAP2 POP POP JUMP JUMPDEST PUSH0 PUSH2 0xFE1 PUSH0 NOT DUP5 PUSH1 0x8 MUL PUSH2 0xFC6 JUMP JUMPDEST NOT DUP1 DUP4 AND SWAP2 POP POP SWAP3 SWAP2 POP POP JUMP JUMPDEST PUSH0 PUSH2 0xFF9 DUP4 DUP4 PUSH2 0xFD2 JUMP JUMPDEST SWAP2 POP DUP3 PUSH1 0x2 MUL DUP3 OR SWAP1 POP SWAP3 SWAP2 POP POP JUMP JUMPDEST PUSH2 0x1012 DUP3 PUSH2 0xAB7 JUMP JUMPDEST PUSH8 0xFFFFFFFFFFFFFFFF DUP2 GT ISZERO PUSH2 0x102B JUMPI PUSH2 0x102A PUSH2 0xE3F JUMP JUMPDEST JUMPDEST PUSH2 0x1035 DUP3 SLOAD PUSH2 0xC7F JUMP JUMPDEST PUSH2 0x1040 DUP3 DUP3 DUP6 PUSH2 0xF80 JUMP JUMPDEST PUSH0 PUSH1 0x20 SWAP1 POP PUSH1 0x1F DUP4 GT PUSH1 0x1 DUP2 EQ PUSH2 0x1071 JUMPI PUSH0 DUP5 ISZERO PUSH2 0x105F JUMPI DUP3 DUP8 ADD MLOAD SWAP1 POP JUMPDEST PUSH2 0x1069 DUP6 DUP3 PUSH2 0xFEE JUMP JUMPDEST DUP7 SSTORE POP PUSH2 0x10D0 JUMP JUMPDEST PUSH1 0x1F NOT DUP5 AND PUSH2 0x107F DUP7 PUSH2 0xE6C JUMP JUMPDEST PUSH0 JUMPDEST DUP3 DUP2 LT ISZERO PUSH2 0x10A6 JUMPI DUP5 DUP10 ADD MLOAD DUP3 SSTORE PUSH1 0x1 DUP3 ADD SWAP2 POP PUSH1 0x20 DUP6 ADD SWAP5 POP PUSH1 0x20 DUP2 ADD SWAP1 POP PUSH2 0x1081 JUMP JUMPDEST DUP7 DUP4 LT ISZERO PUSH2 0x10C3 JUMPI DUP5 DUP10 ADD MLOAD PUSH2 0x10BF PUSH1 0x1F DUP10 AND DUP3 PUSH2 0xFD2 JUMP JUMPDEST DUP4 SSTORE POP JUMPDEST PUSH1 0x1 PUSH1 0x2 DUP9 MUL ADD DUP9 SSTORE POP POP POP JUMPDEST POP POP POP POP POP POP JUMP JUMPDEST DUP3 DUP2 DUP4 CALLDATACOPY PUSH0 DUP4 DUP4 ADD MSTORE POP POP POP JUMP JUMPDEST PUSH0 PUSH2 0x10F1 DUP4 DUP6 PUSH2 0xAC1 JUMP JUMPDEST SWAP4 POP PUSH2 0x10FE DUP4 DUP6 DUP5 PUSH2 0x10D8 JUMP JUMPDEST PUSH2 0x1107 DUP4 PUSH2 0xADF JUMP JUMPDEST DUP5 ADD SWAP1 POP SWAP4 SWAP3 POP POP POP JUMP JUMPDEST PUSH0 PUSH1 0xA0 DUP3 ADD SWAP1 POP PUSH2 0x1125 PUSH0 DUP4 ADD DUP10 PUSH2 0xB27 JUMP JUMPDEST PUSH2 0x1132 PUSH1 0x20 DUP4 ADD DUP9 PUSH2 0xAA8 JUMP JUMPDEST DUP2 DUP2 SUB PUSH1 0x40 DUP4 ADD MSTORE PUSH2 0x1145 DUP2 DUP7 DUP9 PUSH2 0x10E6 JUMP JUMPDEST SWAP1 POP PUSH2 0x1154 PUSH1 0x60 DUP4 ADD DUP6 PUSH2 0xB66 JUMP JUMPDEST PUSH2 0x1161 PUSH1 0x80 DUP4 ADD DUP5 PUSH2 0xB27 JUMP JUMPDEST SWAP8 SWAP7 POP POP POP POP POP POP POP JUMP JUMPDEST PUSH32 0x546869732070726F6475637420616C7265616479206578697374730000000000 PUSH0 DUP3 ADD MSTORE POP JUMP JUMPDEST PUSH0 PUSH2 0x11A0 PUSH1 0x1B DUP4 PUSH2 0xAC1 JUMP JUMPDEST SWAP2 POP PUSH2 0x11AB DUP3 PUSH2 0x116C JUMP JUMPDEST PUSH1 0x20 DUP3 ADD SWAP1 POP SWAP2 SWAP1 POP JUMP JUMPDEST PUSH0 PUSH1 0x20 DUP3 ADD SWAP1 POP DUP2 DUP2 SUB PUSH0 DUP4 ADD MSTORE PUSH2 0x11CD DUP2 PUSH2 0x1194 JUMP JUMPDEST SWAP1 POP SWAP2 SWAP1 POP JUMP INVALID LOG2 PUSH5 0x6970667358 0x22 SLT KECCAK256 EQ 0xCE PUSH3 0xAB4906 0xFC 0x2B SWAP15 MOD ISZERO 0xAD SWAP15 ADDMOD EXTCODECOPY CALLCODE SWAP7 SWAP12 KECCAK256 PUSH5 0xDA1E35FF2F REVERT 0xF7 SELFDESTRUCT 0xB9 0x4F PUSH6 0xC064736F6C63 NUMBER STOP ADDMOD NOT STOP CALLER "
		},
		"gasEstimates": {
			"creation": {
				"codeDepositCost": "923600",
				"executionCost": "960",
				"totalCost": "924560"
			},
			"external": {
				"products(uint256,uint256)": "infinite",
				"registerProduct(uint256)": "infinite",
				"registerStep(uint256,string,uint256)": "infinite"
			}
		},
		"methodIdentifiers": {
			"products(uint256,uint256)": "a590fbdb",
			"registerProduct(uint256)": "c08e0f96",
			"registerStep(uint256,string,uint256)": "50d6ceae"
		}
	},
	"abi": [
		{
			"anonymous": false,
			"inputs": [
				{
					"indexed": false,
					"internalType": "uint256",
					"name": "productId",
					"type": "uint256"
				},
				{
					"indexed": false,
					"internalType": "enum SupplyChain.Status",
					"name": "status",
					"type": "uint8"
				},
				{
					"indexed": false,
					"internalType": "string",
					"name": "metadata",
					"type": "string"
				},
				{
					"indexed": false,
					"internalType": "address",
					"name": "author",
					"type": "address"
				},
				{
					"indexed": false,
					"internalType": "uint256",
					"name": "price",
					"type": "uint256"
				}
			],
			"name": "RegisteredStep",
			"type": "event"
		},
		{
			"inputs": [
				{
					"internalType": "uint256",
					"name": "",
					"type": "uint256"
				},
				{
					"internalType": "uint256",
					"name": "",
					"type": "uint256"
				}
			],
			"name": "products",
			"outputs": [
				{
					"internalType": "enum SupplyChain.Status",
					"name": "status",
					"type": "uint8"
				},
				{
					"internalType": "string",
					"name": "metadata",
					"type": "string"
				},
				{
					"internalType": "uint256",
					"name": "price",
					"type": "uint256"
				},
				{
					"internalType": "address",
					"name": "author",
					"type": "address"
				}
			],
			"stateMutability": "view",
			"type": "function"
		},
		{
			"inputs": [
				{
					"internalType": "uint256",
					"name": "productId",
					"type": "uint256"
				}
			],
			"name": "registerProduct",
			"outputs": [
				{
					"internalType": "bool",
					"name": "success",
					"type": "bool"
				}
			],
			"stateMutability": "nonpayable",
			"type": "function"
		},
		{
			"inputs": [
				{
					"internalType": "uint256",
					"name": "productId",
					"type": "uint256"
				},
				{
					"internalType": "string",
					"name": "metadata",
					"type": "string"
				},
				{
					"internalType": "uint256",
					"name": "price",
					"type": "uint256"
				}
			],
			"name": "registerStep",
			"outputs": [
				{
					"internalType": "bool",
					"name": "success",
					"type": "bool"
				}
			],
			"stateMutability": "payable",
			"type": "function"
		}
	]
}